:100000000C9435010C9466010C9466010C94660105
:100010000C9466010C9466010C9466010C946601C4
:100020000C9466010C9466010C9466010C946601B4
:100030000C9466010C9466010C9466010C946601A4
:100040000C9466010C9466010C9466010C94660194
:100050000C9466010C9466010C9466010C94CF0517
:100060000C9466010C9499050C946F050C94660130
:100070000C9466010C9466010C9466010C94660164
:100080000C9466010C9466010C9466010C94660154
:100090000C9466010C9466010C9466010C94660144
:1000A0000C9466010C9466010C9466010C94660134
:1000B0000C9466010C9466010C9466010C94660124
:1000C0000C9466010C9466010C9466010C94660114
:1000D0000C9466010C9466010C9466010C94660104
:1000E0000C9466010C94D7020C94C9020C9477010D
:1000F0000C94D5010C940A030C94E4020C94CF02E6
:100100000C94FC020C9419060C94F6020C940D024B
:100110000C9400030C94E8020C940E030C94090355
:100120000C94D3020C9404030C94A4010C945A0272
:100130000C94C7010C94DE020C94B3010C94EE02F3
:100140000C94F2020C94DB02000021002400270032
:100150002A002D00300033000101000004010701D6
:100160000A01000020002300260029002C002F0097
:100170003200000100000301060109010000220015
:10018000250028002B002E00310034000201000061
:10019000050108010B010505050507050808080804
:1001A000020202020A0A080804040404010101010F
:1001B000010101010303030303030303040707070A
:1001C0000C0C0C0C0C0C0C0C0202020206060606AF
:1001D000060606060B0B0B0B0B0B0B0B010210207C
:1001E000200808102040102040800201020108046D
:1001F0000201010204081020408080402010080401
:100200000201800402018040201008040201080459
:10021000020101020408102040800102040810209D
:10022000408000000A0B02090C0D0E0807030401B0
:1002300000000000000000000000000000000000BE
:10024000000000000000000000000000000012118B
:10025000100000000000000000000000000000008E
:100260000000000000000000190611241FBECFEF9F
:10027000D1E2DEBFCDBF00E00CBF12E0A0E0B2E0F3
:10028000E8E9F9E100E00BBF02C007900D92AA3443
:10029000B107D9F723E0AAE4B2E001C01D92A8306B
:1002A000B207E1F711E0C5E3D1E000E006C0219715
:1002B0000109802FFE010E94C20CC433D10780E0E7
:1002C0000807A9F70E9461060C94CA0C0C94000060
:1002D00080910603909107038230910538F0880FD2
:1002E000991F880F991F05970197F1F70895AF920D
:1002F000BF92CF92DF92EF92FF920F931F93CF9313
:10030000DF936C017B018B01040F151FEB015E0174
:10031000AE18BF08C017D10759F06991D601ED9109
:10032000FC910190F081E02DC6011995892B79F798
:10033000C501DF91CF911F910F91FF90EF90DF905A
:10034000CF90BF90AF900895FC01538D448D252F21
:1003500030E0842F90E0821B930B541710F0CF965F
:10036000089501970895FC01918D828D981761F091
:10037000A28DAE0FBF2FB11D5D968C91928D9F5FA8
:100380009F73928F90E008958FEF9FEF0895FC0187
:10039000918D828D981731F0828DE80FF11D858D3A
:1003A00090E008958FEF9FEF0895FC01918D228DCD
:1003B000892F90E0805C9F4F821B91098F73992752
:1003C000089586E692E00E94D50121E0892B09F488
:1003D00020E0822F0895FC01A48DA80FB92FB11D34
:1003E000A35ABF4F2C91848D90E001968F7399276B
:1003F000848FA689B7892C93A089B1898C91837049
:1004000080648C93938D848D981306C00288F38941
:10041000E02D80818F7D80830895EF92FF920F936E
:100420001F93CF93DF93EC0181E0888F9B8D8C8DA0
:1004300098131AC0E889F989808185FF15C09FB794
:10044000F894EE89FF896083E889F9898081837057
:10045000806480839FBF81E090E0DF91CF911F9106
:100460000F91FF90EF900895F62E0B8D10E00F5F27
:100470001F4F0F731127E02E8C8D8E110CC00FB6FD
:1004800007FCFACFE889F989808185FFF5CFCE0195
:100490000E94EB01F1CFEB8DEC0FFD2FF11DE35A24
:1004A000FF4FF0829FB7F8940B8FEA89FB89808118
:1004B0008062CFCFCF93DF93EC01888D8823B9F092
:1004C000AA89BB89E889F9898C9185FD03C080815F
:1004D00086FD0DC00FB607FCF7CF8C9185FFF2CFDC
:1004E000808185FFEDCFCE010E94EB01E9CFDF9146
:1004F000CF91089580E090E0892B29F00E94E101DE
:1005000081110E94000080E090E0892B49F080E09A
:1005100090E0892B29F00E94000081110E940000C8
:1005200080E090E0892B49F080E090E0892B29F071
:100530000E94000081110E94000080E090E0892B61
:1005400049F080E090E0892B29F00E9400008111A1
:100550000C94000008958150823108F05AC0E82FB1
:10056000F0E08827E954FD4F8F4F0C94C20CD7025E
:10057000DB02C902CF02D3020903DE02E402E80271
:10058000EE02F202F602FC020003090304030A036E
:100590000E03809180008F77809380000895809172
:1005A00080008F7DF9CF80918000877FF5CF84B563
:1005B0008F7784BD089584B58F7DFBCF8091B00087
:1005C0008F778093B00008958091B0008F7DF9CF30
:1005D000809190008F778093900008958091900093
:1005E0008F7DF9CF80919000877FF5CF8091A0001B
:1005F0008F778093A00008958091A0008F7DF9CF20
:100600008091A000877FF5CF809120018F77809324
:1006100020010895809120018F7DF9CF80912001E4
:10062000877FF5CFCF93DF93282F30E0F901EE5D80
:10063000FD4F8491F901E452FE4FD491F901EA563D
:10064000FE4FC491CC2391F081110E94AB02EC2F9C
:10065000F0E0EE0FFF1FE458FE4FA591B4918FB765
:10066000F894EC91D095DE23DC938FBFDF91CF918E
:100670000895CF93DF9390E0FC01E452FE4F249164
:100680008A569E4FFC0184918823D1F090E0880F18
:10069000991FFC01E85BFE4FA591B491FC01E45861
:1006A000FE4FC591D49161110EC09FB7F8948C9103
:1006B000E22FE0958E238C932881E223E8839FBF6D
:1006C000DF91CF9108958FB7F894EC91E22BEC93E2
:1006D0008FBFF6CFCF93DF93C3E0D3E061E0898192
:1006E0000E9439030E94680160E088810E943903FA
:1006F0000E94680160E089810E943903DF91CF91F7
:100700000C9468010F931F93CF93DF93D82FC8E009
:1007100061E0809103030E9439030E9468010D2F5C
:1007200010E060E0D0FF61E0809104030E94390393
:100730000E94680160E0809103030E9439030E94D7
:10074000680115950795D02FC15011F761E0809190
:1007500003030E94390360E0809104030E9439037F
:100760000E94680160E0809103030E9439030E94A7
:1007700068012091040330E0F901EE5DFD4F8491A2
:10078000F901E452FE4FD491F901EA56FE4FC491AB
:10079000CC2339F181110E94AB02EC2FF0E0EE0F77
:1007A000FF1FEE59FE4FA591B491EC91ED23C1E0EE
:1007B00009F4C0E0C11105C061E0809104030E940A
:1007C00039030E94680161E0809103030E943903AC
:1007D0000E9468018C2F8170DF91CF911F910F9142
:1007E0000895C0E0E9CF61E0809104030E943903DD
:1007F0000C9468010F931F93CF93DF938C010E9499
:10080000F30380E40E9482030E946A030E94F303C0
:1008100080EC0E948203E8010C5F1F4F89910E94C7
:100820008203C017D107D1F70E946A030E94F30325
:10083000809105038F7080580E948203DF91CF91D1
:100840001F910F910C946A03865320917B00982F7F
:10085000987F277F922B90937B0087708064809392
:100860007C0080917A00806480937A0080917A0085
:1008700086FDFCCF809178009091790008953FB774
:10088000F89480914F0290915002A0915102B09142
:10089000520226B5A89B05C02F3F19F00196A11D55
:1008A000B11D3FBFBA2FA92F982F8827BC01CD01BA
:1008B000620F711D811D911D42E0660F771F881F19
:1008C000991F4A95D1F708958F929F92AF92BF9248
:1008D000CF92DF92EF92FF924B015C010E943F04A6
:1008E0006B017C010E943F046C197D098E099F09F0
:1008F000683E734081059105A8F321E0821A9108B2
:10090000A108B10888EEC80E83E0D81EE11CF11CD6
:1009100081149104A104B10429F7FF90EF90DF90B6
:10092000CF90BF90AF909F908F9008958F929F929D
:10093000AF92BF92CF92DF92EF92FF92C0900402EB
:10094000D0900502E0900602F090070260916402E8
:1009500070916502072E000C880B990B0E948C0B7E
:10096000209108023091090240910A0250910B0235
:100970000E94410C20E030E040E85AE30E94410C24
:100980004B015C0120910002309101024091020272
:1009900050910302C701B6010E94A70A9B01AC0156
:1009A000C701B6010E94180B9B01AC01C501B4013F
:1009B0000E94180B60936002709361028093620240
:1009C00090936302FF90EF90DF90CF90BF90AF9035
:1009D0009F908F9008951092600210926102109281
:1009E00062021092630280E090E6AAEEB6E4809381
:1009F000000290930102A0930202B093030280E0F0
:100A000090E6AAEEB5E48093040290930502A093C9
:100A10000602B093070280E090E0A0EAB0E4809381
:100A2000080290930902A0930A02B0930B0210925D
:100A30006502109264020895DF92EF92FF920F9385
:100A40001F93CF93DF9300D01F92CDB7DEB79B01EA
:100A500040E087FF02C0819541E021153105A9F4EE
:100A600019821A821B828FE38C83CE0101960E9429
:100A7000FA030F900F900F900F90DF91CF911F917D
:100A80000F91FF90EF90DF900895FE0131967E0167
:100A900093E0E91AF108082F880F110B80E4D82E93
:100AA000C901B8010E94AE0C582F811109C021154F
:100AB000310531F41382442361F0D38240E009C050
:100AC0008C5E9D4FDC018C918383511102C0232BDE
:100AD00091F39B013197EE16FF0611F7C6CF1F92D7
:100AE0000F920FB60F9211240BB60F922F933F93D4
:100AF0004F935F936F937F938F939F93AF93BF9326
:100B0000EF93FF9386E692E00E94EB01FF91EF9155
:100B1000BF91AF919F918F917F916F915F914F9115
:100B20003F912F910F900BBE0F900FBE0F901F9013
:100B300018951F920F920FB60F9211240BB60F92B9
:100B40002F938F939F93EF93FF93E0917602F09111
:100B500077028081E0917C02F0917D0282FD1DC0D0
:100B6000908180917F028F5F8F7320918002821726
:100B700041F0E0917F02F0E0EA59FD4F958F8093BC
:100B80007F02FF91EF919F918F912F910F900BBE5C
:100B90000F900FBE0F901F9018958081F2CF1F927B
:100BA0000F920FB60F9211242F933F938F939F9321
:100BB000AF93BF9380914B0290914C02A0914D0254
:100BC000B0914E0230914A0223E0230F2D3758F5A1
:100BD0000196A11DB11D20934A0280934B02909370
:100BE0004C02A0934D02B0934E0280914F0290911F
:100BF0005002A0915102B09152020196A11DB11D67
:100C000080934F0290935002A0935102B0935202EE
:100C1000BF91AF919F918F913F912F910F900FBEF8
:100C20000F901F90189526E8230F0296A11DB11D65
:100C3000D2CFCF93DF93E6E6F2E01382128288EE02
:100C400093E0A0E0B0E084839583A683B78388E235
:100C500092E09183808385EC90E09587848784EC93
:100C600090E09787868780EC90E0918B808B81EC79
:100C700090E0938B828B82EC90E0958B848B86EC5A
:100C800090E0978B868B118E128E138E148EC3E09C
:100C9000D3E08BE088838AE0898384E690E09C83BC
:100CA0008B8360E08BE00E94390360E089810E94C1
:100CB000390388810E9412038981DF91CF910C94BE
:100CC0001203CF93DF9300D01F92CDB7DEB7789495
:100CD00084B5826084BD84B5816084BD85B5826041
:100CE00085BD85B5816085BD80916E0081608093F2
:100CF0006E0010928100809181008260809381005B
:100D0000809181008160809381008091800081606A
:100D1000809380008091B10084608093B1008091C5
:100D2000B00081608093B0008091910082608093D8
:100D3000910080919100816080939100809190005A
:100D40008160809390008091A10082608093A100D7
:100D50008091A10081608093A1008091A0008160BA
:100D60008093A00080912101826080932101809175
:100D70002101816080932101809120018160809315
:100D8000200180917A00846080937A0080917A00BB
:100D9000826080937A0080917A00816080937A00EB
:100DA00080917A00806880937A001092C100E0916F
:100DB0007602F091770282E08083E0917202F091F6
:100DC00073021082E0917402F09175028FEC8083BF
:100DD00010927E02E0917A02F0917B0286E080839D
:100DE000E0917802F0917902808180618083E091C6
:100DF0007802F0917902808188608083E0917802A6
:100E0000F0917902808180688083E0917802F0918E
:100E1000790280818F7D80834FE050E066E372E04D
:100E200086E692E00E94770142E050E066E472E0DC
:100E300086E692E00E94770110925E0210925D02B7
:100E400010925402109253028FE08093050380E1C8
:100E500092E00E94FA0360ED77E080E090E00E946B
:100E6000640419821A821B821C82CE0101960E94A0
:100E7000FA0301E010E00130110541F410925F0225
:100E80000630110571F41092580222C0023011058B
:100E900019F410925C02F4CF0330110541F4109262
:100EA0005B020730110541F41092570211C0043063
:100EB000110549F410925A020830110509F0E9C1F0
:100EC0001092560205C005301105D1F61092590254
:100ED000B8018AE00E941C0565E070E080E090E0C7
:100EE0000E9464040F5F1F4F0A30110521F619821A
:100EF0001A821B821C82CE0101960E94FA038CE0AA
:100F000092E00E94FA0360ED77E080E090E00E94BA
:100F1000640470E060E08AE00E941C0511E00E9419
:100F2000EB0487E30E94240490936502809364029B
:100F30000E9496048090600290906102A0906202EC
:100F4000B0906302E0905D02F0905E0220E030E03D
:100F500040E351E4C501B4010E943C0C87FDA0C1EF
:100F600080915F02811186C28FEFE81AF80AF09231
:100F70005E02E0925D0210935F020E94EB0488E340
:100F80000E94240490936502809364020E94960458
:100F90008090600290906102A0906202B090630223
:100FA000E0905D02F0905E0220E030E040E351E42A
:100FB000C501B4010E943C0C87FD8CC180915C028C
:100FC000811164C282E0E80EF11CF0925E02E092B0
:100FD0005D0210935C020E94EB0489E30E942404EA
:100FE00090936502809364020E9496048090600250
:100FF00090906102A0906202B0906302E0905D0266
:10100000F0905E0220E030E040E351E4C501B4011D
:101010000E943C0C87FD78C180915B02811142C225
:1010200084E0E80EF11CF0925E02E0925D02109303
:101030005B020E94EB048AE30E9424049093650201
:10104000809364020E9496048090600290906102F6
:10105000A0906202B0906302E0905D02F0905E02A8
:1010600020E030E040E351E4C501B4010E943C0CB3
:1010700087FD64C180915A02811120C288E0E80E88
:10108000F11CF0925E02E0925D0210935A020E94FF
:10109000EB048BE30E942404909365028093640226
:1010A0000E9496048090600290906102A09062027B
:1010B000B0906302E0905D02F0905E0220E030E0CC
:1010C00040E351E4C501B4010E943C0C87FD50C1CE
:1010D000809159028111FEC180E1E80EF11CF0926D
:1010E0005E02E0925D02109359020E94EB048CE3D1
:1010F0000E94240490936502809364020E949604E7
:101100008090600290906102A0906202B0906302B1
:10111000E0905D02F0905E0220E030E040E351E4B8
:10112000C501B4010E943C0C87FD3CC1809158026E
:101130008111DCC180E2E80EF11CF0925E02E092C7
:101140005D02109358020E94EB048DE30E94240478
:1011500090936502809364020E94960480906002DE
:1011600090906102A0906202B0906302E0905D02F4
:10117000F0905E0220E030E040E351E4C501B401AC
:101180000E943C0C87FD28C1809157028111BAC191
:1011900080E4E80EF11CF0925E02E0925D02109392
:1011A00057020E94EB048EE30E9424049093650290
:1011B000809364020E949604809060029090610285
:1011C000A0906202B0906302E0905D02F0905E0237
:1011D00020E030E040E351E4C501B4010E943C0C42
:1011E00087FD14C180915602811198C180E8E80EF4
:1011F000F11CF0925E02E0925D02109356020E9492
:10120000EB048FE30E9424049093650280936402B0
:101210000E9496048090600290906102A090620209
:10122000B0906302E0905D02F0905E0220E030E05A
:1012300040E351E4C501B4010E943C0C87FD00C1AC
:1012400080915502811176C1F394F0925E02E09292
:101250005D021093550280915D0290915E02209193
:101260005302309154022817390781F090935402A9
:1012700080935302BC0197FF04C066277727681B41
:10128000790B97FFF5C086EF0E941C050E947A0239
:1012900046CE0930110509F01BCE1092550218CE2A
:1012A00020E030E040E351E4C501B4010E94130B9B
:1012B00018160CF462CE80915F02882309F45DCE8B
:1012C00081E0E81AF108F0925E02E0925D0210926D
:1012D0005F0253CE20E030E040E351E4C501B401A9
:1012E0000E94130B18160CF476CE80915C028823B2
:1012F00009F471CE82E0E81AF108F0925E02E09201
:101300005D0210925C0267CE20E030E040E351E4E1
:10131000C501B4010E94130B18160CF48ACE8091FB
:101320005B02882309F485CE84E0E81AF108F09284
:101330005E02E0925D0210925B027BCE20E030E024
:1013400040E351E4C501B4010E94130B18160CF4DC
:101350009ECE80915A02882309F499CE88E0E81A3B
:10136000F108F0925E02E0925D0210925A028FCE76
:1013700020E030E040E351E4C501B4010E94130BCA
:1013800018160CF4B2CE80915902882309F4ADCE20
:1013900080E1E81AF108F0925E02E0925D0210929C
:1013A0005902A3CE20E030E040E351E4C501B4018E
:1013B0000E94130B18160CF4C6CE80915802882395
:1013C00009F4C1CE80E2E81AF108F0925E02E092E0
:1013D0005D0210925802B7CE20E030E040E351E4C5
:1013E000C501B4010E94130B18160CF4DACE8091DB
:1013F0005702882309F4D5CE80E4E81AF108F09268
:101400005E02E0925D0210925702CBCE20E030E007
:1014100040E351E4C501B4010E94130B18160CF40B
:10142000EECE80915602882309F4E9CE80E8E81ACE
:10143000F108F0925E02E0925D0210925602DFCE59
:1014400020E030E040E351E4C501B4010E94130BF9
:1014500018160CF400CF80915502882309F4FBCEB6
:10146000FA94F0925E02E0925D0210925502F3CE81
:101470008AE00ACF20E030E040E351E4C501B40146
:101480000E94130B18160CF01BCF77CD20E030E034
:1014900040E351E4C501B4010E94130B18160CF08F
:1014A00029CF99CD20E030E040E351E4C501B401FB
:1014B0000E94130B18160CF037CFBBCD20E030E0A4
:1014C00040E351E4C501B4010E94130B18160CF05F
:1014D00045CFDDCD20E030E040E351E4C501B4016B
:1014E0000E94130B18160CF053CFFFCD20E030E014
:1014F00040E351E4C501B4010E94130B18160CF02F
:1015000061CF21CE20E030E040E351E4C501B401D9
:101510000E94130B18160CF06FCF43CE20E030E082
:1015200040E351E4C501B4010E94130B18160CF0FE
:101530007DCF65CE20E030E040E351E4C501B40149
:101540000E94130B18160CF08BCF85CE5058BB277A
:10155000AA270E94BE0A0C94020C0E94F40B38F0D9
:101560000E94FB0B20F039F49F3F19F426F40C94F1
:10157000F10B0EF4E095E7FB0C94EB0BE92F0E94C6
:10158000130C58F3BA17620773078407950720F006
:1015900079F4A6F50C94350C0EF4E0950B2EBA2FC9
:1015A000A02D0B01B90190010C01CA01A001112469
:1015B000FF27591B99F0593F50F4503E68F11A1615
:1015C000F040A22F232F342F4427585FF3CF4695A6
:1015D00037952795A795F0405395C9F77EF41F16C8
:1015E000BA0B620B730B840BBAF09150A1F0FF0F92
:1015F000BB1F661F771F881FC2F70EC0BA0F621F7E
:10160000731F841F48F4879577956795B795F7956D
:101610009E3F08F0B0CF9395880F08F09927EE0F02
:101620009795879508950E94C70B08F481E0089567
:101630000E942C0B0C94020C0E94FB0B58F00E9491
:10164000F40B40F029F45F3F29F00C94EB0B51119F
:101650000C94360C0C94F10B0E94130C68F3992334
:10166000B1F3552391F3951B550BBB27AA2762179E
:101670007307840738F09F5F5F4F220F331F441FAB
:10168000AA1FA9F335D00E2E3AF0E0E832D09150DF
:101690005040E695001CCAF72BD0FE2F29D0660FCC
:1016A000771F881FBB1F261737074807AB07B0E80F
:1016B00009F0BB0B802DBF01FF2793585F4F3AF015
:1016C0009E3F510578F00C94EB0B0C94360C5F3F69
:1016D000E4F3983ED4F3869577956795B795F7959B
:1016E0009F5FC9F7880F911D9695879597F9089583
:1016F000E1E0660F771F881FBB1F6217730784071F
:10170000BA0720F0621B730B840BBA0BEE1F88F72D
:10171000E0950895E89409C097FB3EF49095809574
:10172000709561957F4F8F4F9F4F9923A9F0F92FA7
:1017300096E9BB279395F695879577956795B79525
:10174000F111F8CFFAF4BB0F11F460FF1BC06F5F0B
:101750007F4F8F4F9F4F16C0882311F096E911C01D
:10176000772321F09EE8872F762F05C0662371F03E
:1017700096E8862F70E060E02AF09A95660F771F52
:10178000881FDAF7880F9695879597F90895990F2E
:101790000008550FAA0BE0E8FEEF16161706E8073B
:1017A000F907C0F012161306E407F50798F0621B5C
:1017B000730B840B950B39F40A2661F0232B242B31
:1017C000252B21F408950A2609F4A140A6958FEF50
:1017D000811D811D089597F99F6780E870E060E0A2
:1017E00008959FEF80EC089500240A9416161706BA
:1017F00018060906089500240A9412161306140602
:1018000005060895092E0394000C11F4882352F064
:10181000BB0F40F4BF2B11F460FF04C06F5F7F4F1C
:101820008F4F9F4F089557FD9058440F551F59F003
:101830005F3F71F04795880F97FB991F61F09F3FBD
:1018400079F087950895121613061406551FF2CFE6
:101850004695F1DF08C0161617061806991FF1CF36
:1018600086957105610508940895E894BB2766275D
:101870007727CB0197F908950E94C70B08F48FEFE3
:1018800008950E94540C0C94020C0E94F40B38F042
:101890000E94FB0B20F0952311F00C94EB0B0C94A1
:1018A000F10B11240C94360C0E94130C70F3959FCD
:1018B000C1F3950F50E0551F629FF001729FBB2747
:1018C000F00DB11D639FAA27F00DB11DAA1F649FE3
:1018D0006627B00DA11D661F829F2227B00DA11D96
:1018E000621F739FB00DA11D621F839FA00D611D1C
:1018F000221F749F3327A00D611D231F849F600D3D
:10190000211D822F762F6A2F11249F5750409AF065
:10191000F1F088234AF0EE0FFF1FBB1F661F771FF1
:10192000881F91505040A9F79E3F510580F00C94BC
:10193000EB0B0C94360C5F3FE4F3983ED4F38695A2
:1019400077956795B795F795E7959F5FC1F7FE2B5C
:10195000880F911D9695879597F90895AA1BBB1B33
:1019600051E107C0AA1FBB1FA617B70710F0A61B9F
:10197000B70B881F991F5A95A9F780959095BC01C0
:10198000CD010895EE0FFF1F881F8BBF0790F691C2
:08199000E02D1994F894FFCF3B
:101998000060EA460060EA450000A04000505E6E24
:1019A800FFFFFFFF3F065B4F666D7D077F6F777C0C
:1019B800395E7971000000000D027701A4015A0216
:1019C800D501B301C701444320566F6C7461676544
:0A19D8002054657374000D0A00002E
:00000001FF
